:020000040800F2
:100000001089002075050008C10E0008CD0E0008FB
:10001000D50E0008DD0E0008E50E00080000000007
:10002000000000000000000000000000ED0E0008CD
:10003000F90E000800000000050F0008110F00086D
:10004000D5050008D5050008D5050008D505000828
:10005000D5050008D5050008D5050008D505000818
:10006000D5050008290C0008D5050008D5050008AD
:10007000D5050008D5050008D5050008D5050008F8
:10008000D5050008D5050008D5050008D5050008E8
:10009000D5050008D5050008D5050008D5050008D8
:1000A000D5050008D5050008D5050008D5050008C8
:1000B000D5050008D5050008D5050008D5050008B8
:1000C000D5050008D5050008D5050008D5050008A8
:1000D000D5050008D5050008350F0008D50500082E
:1000E000D5050008D5050008D5050008D505000888
:1000F000D5050008D5050008D5050008D505000878
:10010000D5050008D5050008D5050008D505000867
:10011000D5050008D5050008D5050008D505000857
:10012000D5050008D5050008D5050008D505000847
:10013000D5050008D5050008D5050008D505000837
:10014000D5050008D5050008D5050008D505000827
:10015000D5050008D5050008D5050008D505000817
:10016000D5050008D5050008D5050008D505000807
:10017000D5050008D5050008D5050008D5050008F7
:10018000D5050008D505000890B484B000AF02463C
:100190000B46FA71BB710023FB60BB7903F00303CC
:1001A0009B000F2202FA03F3FB60154BBA79920809
:1001B000D2B21349B8798008C0B2023051F8200099
:1001C000F968C9430140023243F822100C4BBA7956
:1001D0009208D2B20A49B8798008C0B2023051F808
:1001E0002000FC79B97901F00301890004FA01F1DA
:1001F0000143023243F822101037BD4690BC7047CD
:100200000038014080B58AB000AF786039600023C3
:100210007B6200233B620023FB610023BB617B68A0
:100220001B8A9BB27B627B6A23F440537B623B68F0
:10023000DB887A6A13437B627B6A9AB27B681A8294
:100240007B689B899BB27B627B6A23F4B05323F06B
:100250000C037B623B689A883B681B8913439AB204
:100260003B685B8913439BB27A6A13437B627B6A68
:100270009AB27B689A817B689B8A9BB27B627B6A1D
:1002800023F440737B623B689B897A6A13437B62E9
:100290007B6A9AB27B689A8207F10803184600F0DD
:1002A0000BFD7A68314B9A4203D07A68304B9A4200
:1002B00002D17B693B6201E03B693B627B689B89C1
:1002C0009BB29BB21BB2002B0CDA3A6A13469B001E
:1002D00013449A001A443B681B685B00B2FBF3F3BB
:1002E000FB610BE03A6A13469B0013449A001A44E0
:1002F0003B681B689B00B2FBF3F3FB61FA691D4B83
:10030000A3FB02135B091B017B627B6A1B0964224E
:1003100002FB03F3FA69D31ABB617B689B899BB22A
:100320009BB21BB2002B0DDABB69DB0003F132027A
:10033000104BA3FB02135B0903F007037A6A134314
:100340007B620CE0BB691B0103F13202094BA3FB8A
:1003500002135B0903F00F037A6A13437B627B6A23
:100360009AB27B681A812837BD4680BD00100140D3
:10037000001401401F85EB5180B483B000AF78605A
:100380000B46FB70FB78002B08D07B689B899BB2E7
:1003900043F400539AB27B689A8107E07B689B899B
:1003A0009BB223F400539AB27B689A810C37BD4606
:1003B0005DF8047B704700BF80B483B000AF786005
:1003C0000B467B807B88C3F308039AB27B689A80D4
:1003D0000C37BD465DF8047B704700BF80B483B026
:1003E00000AF78607B689B889BB2C3F308039BB225
:1003F00018460C37BD465DF8047B704780B487B063
:1004000000AF786013460A467A807B7000233B6118
:100410000023FB600023BB6000237B617B687B6162
:100420007B88DBB25B09DBB23B617B8803F01F0397
:10043000FB60FB68012202FA03F3BB603B69012BFE
:1004400003D17B690C337B6109E03B69022B03D14B
:100450007B6910337B6102E07B6914337B617B78BD
:10046000002B06D07B697A691168BA680A431A6062
:1004700006E07B697A691168BA68D2430A401A605B
:100480001C37BD465DF8047B704700BF80B485B063
:1004900000AF78600B467B800023FB737B681B8872
:1004A0009AB27B8813409BB2002B02D00123FB73CE
:1004B00001E00023FB73FB7B18461437BD465DF853
:1004C000047B704780B487B000AF78600B467B80B8
:1004D0000023FB6000237B610023BB600023FB74CF
:1004E0007B88DBB25B09DBB2BB607B8803F01F0358
:1004F0007B617B69012202FA03F37B61BB68012BFC
:1005000006D17B689B899BB27A6913407B610FE0BF
:10051000BB68022B06D17B681B8A9BB27A691340A9
:100520007B6105E07B689B8A9BB27A6913407B61A3
:100530007B881B0A9BB2FB60FB68012202FA03F373
:10054000FB607B681B889BB2FA681340FB607B6989
:10055000002B05D0FB68002B02D00123FB7401E0C7
:100560000023FB74FB7C18461C37BD465DF8047BFA
:10057000704700BF80B582B000AF114B7B60114B5C
:100580003B6007E03B681A1D3A607A68111D79608C
:1005900012681A603A680C4B9A42F3D30B480C4924
:1005A0004FF000028842B8BF40F8042BFFF6FAAFC4
:1005B00000F0E2FD00F090F80837BD4680BD00BFB6
:1005C0005473000800000020C4080020C408002064
:1005D0001009002080B400AFFEE700BF80B483B0F4
:1005E00000AF0346FB71084B97F907205209F979D0
:1005F00001F01F01012000FA01F143F822100C372D
:10060000BD465DF8047B704700E100E080B483B034
:1006100000AF0346FB71094B97F907205209F9799E
:1006200001F01F01012000FA01F1203243F82210ED
:100630000C37BD465DF8047B704700BF00E100E069
:1006400080B483B000AF03463960FB7197F907307F
:10065000002B0BDA0D49FB7903F00F03043B3A68DA
:10066000D2B21201D2B20B441A7609E0084997F9C6
:1006700007303A68D2B21201D2B20B4483F8002399
:100680000C37BD465DF8047B704700BF00ED00E00D
:1006900000E100E080B582B000AF78607B68B3F124
:1006A000807F01D3012311E00A4B7A6822F07F4258
:1006B000013A5A604FF0FF300F21FFF7C1FF054BA1
:1006C00000229A60034B07221A600023184608375D
:1006D000BD4680BD10E000E080B588B000AF884B1B
:1006E0001B689B68184600210222002301F0CEFD02
:1006F00001F0FAF800F066FA00F09EF900F0F0F967
:1007000000F00EFA7F4B1A687F4BA3FB02139B0984
:100710001846FFF7BFFF0346002B00D0FEE700237B
:10072000FB770023BB6100237B610023FB744FF048
:100730000003BB600023FB607448012101F0A8F8AE
:100740000346FB71FB79012B2DD10920FFF75EFFDA
:100750006F4B1B68184601F077FA02460B461046AD
:10076000194665A3D3E9002301F00EFC02460B46AF
:100770001046194601F0F0FC0346BB60B86801F072
:1007800085FA02460B46634801F036FD624801F0E7
:1007900075FD5F4B00221A600920FFF71FFF5B48C1
:1007A000012101F091F85D48012100F069FC034648
:1007B000BB775A484FF4806100F062FC0346BB717E
:1007C000BB79002B03D1BB690133BB6109E0FB7C22
:1007D000002B01D10023BB61FB7C012B01D1504BCD
:1007E000BB61BB7F012B40F0838000237B61FB7FDB
:1007F0000133FB77FB7F062B7AD8FB7F013B052B70
:1008000000F29B8001A252F823F000BF25080008E7
:10081000490800086D08000891080008B50800089C
:10082000D90800083F484FF4806100F043FC3D4880
:100830004FF4C05100F04CFC40F69F73FB60012365
:10084000FB74374BBB6153E036484FF4006100F056
:1008500031FC34484FF4A05100F03AFC41F24F43D0
:10086000FB600123FB742E4BBB6141E02D484FF42C
:10087000406100F01FFC2B484FF4805100F028FC31
:1008800041F6FF03FB600123FB74254BBB612FE0A6
:1008900024484FF4805100F00DFC22484FF4406191
:1008A00000F016FC41F6AF53FB600123FB741C4BB8
:1008B000BB611DE01B484FF4A05100F0FBFB194841
:1008C0004FF4006100F004FC42F20673FB60012368
:1008D000FB74134BBB610BE012484FF4E05100F086
:1008E000F7FB0023FB600123FB740D4BBB6100BFD2
:1008F00023E000BFAFF300800AD7A3703D0AF73FA3
:100900005004002010000020D34D62100040014030
:10091000C40800207C7100088471000800000240B7
:1009200010210100000402403B48012100F0A8FB17
:100930000346BB77322000F031F9BB7F012BF3D0A7
:10094000FB7F052B01D90023FB77FB683348194651
:1009500000F072FF30484FF4806100F091FB0346D5
:10096000BB71BB79002B1ED1BA692D4B9A421ADD9F
:100970000920FFF74BFE2B4B01221A700023BB61AD
:100980000023FB770023FB6027484FF4E05100F081
:100990009FFB0023FB74322000F000F922484FF443
:1009A000005100F087FB1F4B1B78DBB2012B0BD1F2
:1009B0001E48012100F06CFF0346FB71FB79012BFF
:1009C00002D17B6901337B617B69732B04D11648AB
:1009D0004FF4005100F07CFB7B69762B1BD1092082
:1009E000FFF7FCFD0F4B00221A7000237B610223EE
:1009F000FB770D484FF4006100F05CFB0A484FF4B0
:100A0000A05100F065FB41F24F43FB600023FB74F3
:100A1000074BBB6190E68FE60000024000080040F3
:100A2000F8240100C80800200004024000400140F2
:100A300010210100AFF3008080B58AB000AF08201C
:100A4000012100F0E3F90420012100F0FDF9022367
:100A500087F82430002387F82630002387F82730D2
:100A6000002387F825304FF400433B6207F1200351
:100A70001948194600F076FA17480F21022200F0B3
:100A800035FB07F11403184600F014FE2923BB823E
:100A900042F20F73BB6107F114031048194600F0CE
:100AA0009FFD3B46184600F0A5FE60233B800123D6
:100AB0007B800023BB603B460848194600F034FEAB
:100AC0000648082100F0C6FE0448012100F00CFE93
:100AD0002837BD4680BD00BF000C02400008004022
:100AE00080B584B000AF4FF48030012100F0CAF926
:100AF0003B1D184600F0DEFD45F20723BB8042F2A5
:100B00000F73BB603B1D0548194600F069FD0348A3
:100B1000012100F0E9FD1037BD4680BD00400140D5
:100B200080B586B000AF0420012100F06FF90023EA
:100B30003B750023BB750223FB7503237B750823DC
:100B40003B6107F110031448194600F00BFA4FF40B
:100B50008040012100F096F902200321FFF714FBE9
:100B60000823BB600123BB7300233B7308237B7303
:100B700007F10803184600F035FC09233B710123F7
:100B80007B710123BB710123FB713B1D184600F0F3
:100B9000C9FC1837BD4680BD0008024080B483B050
:100BA00000AF78607A68064B1A6000BF044B1B6880
:100BB000002BFBD10C37BD465DF8047B704700BFAE
:100BC0000809002080B582B000AF0120012100F0AB
:100BD0001DF900233B710023BB710023FB7100232F
:100BE0007B7140F201433B603B460D48194600F0E3
:100BF000B9F90220012100F009F901233B7100231A
:100C0000BB710023FB7100237B714FF470533B6079
:100C10003B460448194600F0A5F90837BD4680BD9B
:100C2000000002400004024080B582B000AF0820FE
:100C300000F046FC0346002B33D01B48082100F08F
:100C40001FFA03461A46194B1A70184B1B78DBB271
:100C5000012B05D1164B1B685A1C154B1A6013E06B
:100C600012E01148082100F00BFA03461A460F4B18
:100C70001A7000237B6002E07B6801337B607A6836
:100C800041F287339A42F7D9084B1B78DBB2012B2C
:100C900004D1084B1B78DBB2002BE2D0082000F017
:100CA00033FC0837BD4680BD00080240040900201F
:100CB000C4080020C808002080B489B000AF786064
:100CC0000023BB6100237B610023FB6102233B61A6
:100CD0000023FB600223BB60484B9B6803F00C03BE
:100CE000BB61BB69042B07D0082B09D0002B3FD177
:100CF0007B68434A1A603FE07B68424A1A603BE0E7
:100D00003E4B5B6803F480039B0DFB603B4B5B68D1
:100D100003F03F03BB60FB68002B0DD0394ABB6872
:100D2000B2FBF3F2354B596847F6C0730B409B0991
:100D300003FB02F3FB610CE0314ABB68B2FBF3F248
:100D40002E4B596847F6C0730B409B0903FB02F317
:100D5000FB612A4B5B6803F440331B0C01335B00DF
:100D60003B61FA693B69B2FBF3F27B681A6003E00E
:100D70007B68234A1A6000BF204B9B6803F0F00396
:100D8000BB61BB691B09BB611F4ABB6913441B786C
:100D9000DBB27B617B681A687B69DA407B685A60EA
:100DA000164B9B6803F4E053BB61BB699B0ABB61B4
:100DB000154ABB6913441B78DBB27B617B685A68B8
:100DC0007B69DA407B689A600C4B9B6803F4604354
:100DD000BB61BB695B0BBB610B4ABB6913441B78EE
:100DE000DBB27B617B685A687B69DA407B68DA60DA
:100DF0002437BD465DF8047B704700BF00380240D1
:100E00000024F40000127A000000002080B483B0B7
:100E100000AF78600B46FB70FB78002B06D0094BC7
:100E2000084A116B7A680A431A6306E0054B054AC3
:100E3000116B7A68D2430A401A630C37BD465DF8DD
:100E4000047B70470038024080B483B000AF786004
:100E50000B46FB70FB78002B06D0094B084A116C3F
:100E60007A680A431A6406E0054B054A116C7A68F1
:100E7000D2430A401A640C37BD465DF8047B7047C4
:100E80000038024080B483B000AF78600B46FB703E
:100E9000FB78002B06D0094B084A516C7A680A434C
:100EA0005A6406E0054B054A516C7A68D2430A4001
:100EB0005A640C37BD465DF8047B70470038024029
:100EC00080B400AFBD465DF8047B704780B400AFCE
:100ED000FEE700BF80B400AFFEE700BF80B400AF04
:100EE000FEE700BF80B400AFFEE700BF80B400AFF4
:100EF000BD465DF8047B704780B400AFBD465DF829
:100F0000047B704780B400AFBD465DF8047B70473A
:100F100080B400AF064B1B68002B04D0044B1B6849
:100F20005A1E034B1A60BD465DF8047B704700BF34
:100F30000809002080B500AF084840F22551FFF7AE
:100F4000C1FA0346002B07D00448FFF747FA0346CF
:100F50000348194601F050F980BD00BF004400402D
:100F60008C71000880B487B000AF786039600023CE
:100F70007B6100233B610023FB6000237B6176E003
:100F80007B69012202FA03F33B613B681A683B6903
:100F90001340FB60FA683B699A4265D17B681A6826
:100FA0007B695B00032101FA03F3DB431A407B6892
:100FB0001A607B681A683B681B7919467B695B007D
:100FC00001FA03F31A437B681A603B681B79012B13
:100FD00003D03B681B79022B2ED17B689A687B6912
:100FE0005B00032101FA03F3DB431A407B689A603C
:100FF0007B689A683B685B7919467B695B0001FAFC
:1010000003F31A437B689A607B685A687B699BB2DA
:10101000012101FA03F3DB431A407B685A607B68C5
:101020005A683B689B7919467B699BB201FA03F3C6
:101030009BB21A437B685A607B68DA687B699BB213
:101040005B00032101FA03F3DB431A407B68DA609B
:101050007B68DA683B68DB7919467B695B0001FADB
:1010600003F31A437B68DA607B6901337B617B6938
:101070000F2B85D91C37BD465DF8047B704700BF38
:1010800080B485B000AF78600B467B800023FB7393
:101090007B681A697B881340002B02D00123FB7305
:1010A00001E00023FB73FB7B18461437BD465DF857
:1010B000047B704780B483B000AF78600B467B80C0
:1010C0007B687A881A830C37BD465DF8047B7047CD
:1010D00080B483B000AF78600B467B807B687A88F1
:1010E0005A830C37BD465DF8047B704780B485B0E9
:1010F00000AF786013460A467A807B700023FB605D
:101100000023BB607A787B8803F007039B0002FA18
:1011100003F3FB607B88DB089BB21A467B88DB0805
:101120009BB219467B68083153F821107B8803F085
:1011300007039B000F2000FA03F3DB4319407B6891
:10114000083243F822107B88DB089BB21A467B6882
:10115000083253F82220FB681343BB607B88DB080E
:101160009BB21A467B680832B96843F822101437DC
:10117000BD465DF8047B704780B500AF114B114A46
:10118000126842F001021A600E4B00229A600D4A6A
:101190000C4B1B6823F0847323F480331360094BDA
:1011A000094A5A60074B074A126822F480221A60E3
:1011B000044B0022DA6000F00BF8044B4FF00062A1
:1011C0009A6080BD003802401030002400ED00E03D
:1011D00080B483B000AF00237B6000233B60354BBD
:1011E000344A126842F480321A60324B1B6803F4AE
:1011F00000333B607B6801337B603B68002B03D18D
:101200007B68B3F5A06FF0D12A4B1B6803F4003361
:10121000002B02D001233B6001E000233B603B68D0
:10122000012B42D1234B234A126C42F080521A64A4
:10123000214B214A126842F480421A601D4B1D4A1C
:1012400092689A601B4B1B4A926842F400429A6073
:10125000184B184A926842F4A0529A60154B174AEC
:101260005A60144B134A126842F080721A6000BF31
:10127000104B1B6803F00073002BF9D0104B40F2A9
:1012800005621A600B4B0B4A926822F003029A60C7
:10129000084B084A926842F002029A6000BF054B70
:1012A0009B6803F00C03082BF9D10C37BD465DF8A1
:1012B000047B70470038024000700040085440072B
:1012C000003C024080B485B000AF78600B4B1B68D7
:1012D000002B02D1094B0A4A1A60084B1B68FB60BD
:1012E000064B1A687B681A44044B1A60FB68184660
:1012F0001437BD465DF8047B704700BFCC08002062
:101300001009002080B483B000AF78604FF0FF3345
:1013100018460C37BD465DF8047B704780B483B037
:1013200000AF786039603B684FF400525A60002388
:1013300018460C37BD465DF8047B704780B483B017
:1013400000AF7860012318460C37BD465DF8047B7A
:10135000704700BF80B485B000AFF860B9607A60B4
:10136000002318461437BD465DF8047B704700BF64
:1013700080B485B000AFF860B9607A600023184689
:101380001437BD465DF8047B704700BF80B586B05A
:1013900000AFF860B9607A607B687B6118E0BB6879
:1013A0001B78002B00D116E0BB681B780C4819464F
:1013B000FFF702F800BF0A484021FFF767F803462D
:1013C000002BF8D0BB680133BB607B69013B7B61BC
:1013D0007B69002BE3DC7B6818461837BD4680BD6F
:1013E0000044004080B485B000AF78600023FB600B
:1013F000324BFB607B689B79002B4DD02F4B2F4AE3
:1014000011687A681268D2430A401A602B4B2B4A43
:1014100051687A681268D2430A405A607B681B7927
:10142000FA681344FB60FB68FA6811687A6812680E
:101430000A431A60214B214A91687A681268D243A4
:101440000A409A601D4B1D4AD1687A681268D243DF
:101450000A40DA607B685B79102B0ED1174B174A74
:1014600091687A6812680A439A60144B134AD168EB
:101470007A6812680A43DA601BE0104BFB607B68F5
:101480005B79FA681344FB60FB68FA6811687A6854
:1014900012680A431A600CE07B681B79FA681344EF
:1014A000FB60FB68FA6811687A681268D2430A40E8
:1014B0001A601437BD465DF8047B7047003C01405C
:1014C00080B485B000AF78600023FB730023BB605D
:1014D0000C4B1A687B681340BB600A4B5A697B68E7
:1014E0001340002B05D0BB68002B02D00123FB73F7
:1014F00001E00023FB73FB7B18461437BD465DF803
:10150000047B7047003C014080B483B000AF78603A
:10151000034B7A685A610C37BD465DF8047B70470F
:10152000003C014080B485B000AF78600023FB73BD
:101530000023BB730F237B737B68DB78002B37D0D2
:10154000254BDB68DB4303F4E0631B0AFB73FB7B87
:10155000C3F10403BB737A7BFB7B42FA03F37B7317
:101560007B685B781A46BB7B02FA03F3FB737B68EC
:101570009A787B7B1340DAB2FB7B1343FB73FB7BD4
:101580001B01FB73154A7B681B781344FA7B83F8B5
:101590000023124B7A6812785209D2B2796809781E
:1015A00001F01F01012000FA01F143F822100EE0C2
:1015B0000A4B7A6812785209D2B27968097801F038
:1015C0001F01012000FA01F1203243F822101437E4
:1015D000BD465DF8047B704700ED00E000E100E0EF
:1015E00080B485B000AF786039600023FB817B68F0
:1015F0001B88FB817A68284B9A4213D07A68274B64
:101600009A420FD07B68B3F1804F0BD07A68244B9D
:101610009A4207D07A68234B9A4203D07A68224BC9
:101620009A4208D1FB8923F07003FB813B685A88FA
:10163000FB891343FB817A681C4B9A420CD07A6871
:101640001B4B9A4208D0FB8923F44073FB813B6813
:101650001A89FB891343FB817B68FA891A803B68EE
:101660005A687B68DA623B681A887B681A857A68F0
:10167000094B9A4203D07A68084B9A4204D13B68DE
:101680009B7A1A467B681A867B6801229A821437F5
:10169000BD465DF8047B7047000001400004014036
:1016A0000004004000080040000C00400010004012
:1016B0000014004080B483B000AF78607B684FF0C6
:1016C000FF325A607B6800221A807B6800221A81F0
:1016D0007B6800225A807B6800229A720C37BD46D4
:1016E0005DF8047B704700BF80B483B000AF7860C2
:1016F0000B46FB70FB78002B08D07B681B889BB2E5
:1017000043F001039AB27B681A8007E07B681B886C
:101710009BB223F001039AB27B681A800C37BD4656
:101720005DF8047B704700BF80B485B000AF78607F
:1017300039600023BB8100237B810023FB817B6810
:101740001B8C9BB223F480539AB27B681A847B680B
:101750001B8C7B817B689B88FB817B689B8BBB811F
:10176000BB8923F4E043BB81BB8923F44073BB8175
:101770003B681B881B029AB2BB891343BB817B89E0
:1017800023F400537B813B689B891B039AB27B89BE
:1017900013437B813B685B881B039AB27B891343AD
:1017A0007B817A68114B9A4203D07A68104B9A4237
:1017B0000AD1FB8923F48043FB813B681B8A9B0190
:1017C0009AB2FB891343FB817B68FA899A807B6814
:1017D000BA899A833B689A687B681A647B687A89BD
:1017E0001A841437BD465DF8047B70470000014041
:1017F0000004014080B483B000AF78607B680022B1
:101800001A807B6800225A807B6800229A807B685D
:1018100000229A607B6800229A817B680022DA812C
:101820007B6800221A827B6800225A820C37BD46F0
:101830005DF8047B704700BF80B483B000AF786070
:1018400039607B683A681A640C37BD465DF8047BE2
:10185000704700BF80B485B000AF78600B467B80D6
:101860000023FB817B689B8BFB81FB8923F4006356
:10187000FB817B881B029AB2FB891343FB817B6847
:10188000FA899A831437BD465DF8047B704700BF20
:1018900080B485B000AF78600B467B800023FB737B
:1018A0007B681B8A9AB27B8813409BB2002B02D0C4
:1018B0000123FB7301E00023FB73FB7B1846143705
:1018C000BD465DF8047B704780B483B000AF78609C
:1018D0000B467B807B88DB439AB27B681A820C378D
:1018E000BD465DF8047B704780B586B000AF01202F
:1018F0000121FFF78BFA4FF400300121FFF7A4FA22
:10190000254802210722FFF7F1FB23480321072284
:10191000FFF7ECFB04233B6102233B750023BB75FF
:1019200002237B750123FB7507F110031A48194642
:10193000FFF718FB08233B6102233B750123BB75AE
:1019400002237B750023FB7507F11003124819462B
:10195000FFF708FB4FF4E1333B600023BB8000231B
:10196000FB8000233B810023BB810C237B813B4612
:101970000A481946FEF746FC084840F22551012264
:10198000FEF73CFD05480121FEF7F6FC00F008F8E3
:101990001837BD4680BD00BF000002400044004033
:1019A00080B582B000AF26233B7100237B710023FA
:1019B000BB710123FB713B1D1846FFF7B3FD0837D0
:1019C000BD4680BD81F0004102E000BF83F00043CE
:1019D00030B54FEA41044FEA430594EA050F08BFCA
:1019E00090EA020F1FBF54EA000C55EA020C7FEA8E
:1019F000645C7FEA655C00F0E2804FEA5454D4EB0B
:101A00005555B8BF6D420CDD2C4480EA020281EAD4
:101A1000030382EA000083EA010180EA020281EA0C
:101A20000303362D88BF30BD11F0004F4FEA01315E
:101A30004FF4801C4CEA113102D0404261EB41016D
:101A400013F0004F4FEA03334CEA133302D05242F3
:101A500063EB430394EA050F00F0A780A4F10104AF
:101A6000D5F1200E0DDB02FA0EFC22FA05F28018E9
:101A700041F1000103FA0EF2801843FA05F35941CF
:101A80000EE0A5F120050EF1200E012A03FA0EFC4E
:101A900028BF4CF0020C43FA05F3C01851EBE37178
:101AA00001F0004507D54FF0000EDCF1000C7EEB95
:101AB00000006EEB0101B1F5801F1BD3B1F5001FD3
:101AC0000CD349085FEA30004FEA3C0C04F10104F2
:101AD0004FEA445212F5800F80F09A80BCF1004F1B
:101AE00008BF5FEA500C50F1000041EB045141EA9D
:101AF000050130BD5FEA4C0C404141EB010111F49E
:101B0000801FA4F10104E9D191F0000F04BF014648
:101B10000020B1FA81F308BF2033A3F10B03B3F126
:101B200020020CDA0C3208DD02F1140CC2F10C02B6
:101B300001FA0CF021FA02F10CE002F11402D8BF14
:101B4000C2F1200C01FA02F120FA0CFCDCBF41EAE0
:101B50000C019040E41AA2BF01EB0451294330BDAF
:101B60006FEA04041F3C1CDA0C340EDC04F114048C
:101B7000C4F1200220FA04F001FA02F340EA030063
:101B800021FA04F345EA030130BDC4F10C04C4F1A9
:101B9000200220FA02F001FA04F340EA0300294689
:101BA00030BD21FA04F0294630BD94F0000F83F4D3
:101BB000801306BF81F480110134013D4EE77FEAB6
:101BC000645C18BF7FEA655C29D094EA050F08BF02
:101BD00090EA020F05D054EA000C04BF19461046E3
:101BE00030BD91EA030F1EBF0021002030BD5FEA27
:101BF000545C05D14000494128BF41F0004130BD4F
:101C000014F580043CBF01F5801130BD01F00045A2
:101C100045F0FE4141F470014FF0000030BD7FEA15
:101C2000645C1ABF194610467FEA655C1CBF0B4610
:101C3000024650EA013406BF52EA033591EA030F27
:101C400041F4002130BD00BF90F0000F04BF00211F
:101C5000704730B54FF4806404F132044FF0000552
:101C60004FF0000150E700BF90F0000F04BF0021CB
:101C7000704730B54FF4806404F1320410F0004531
:101C800048BF40424FF000013EE700BF42004FEA2C
:101C9000E2014FEA31014FEA02701FBF12F07F43A9
:101CA00093F07F4F81F06051704792F0000F14BFA6
:101CB00093F07F4F704730B54FF4607401F00045EA
:101CC00021F0004120E700BF50EA010208BF704741
:101CD00030B54FF000050AE050EA010208BF704736
:101CE00030B511F0004502D5404261EB41014FF49F
:101CF000806404F132045FEA915C3FF4DCAE4FF0A3
:101D000003025FEADC0C18BF03325FEADC0C18BF89
:101D1000033202EBDC02C2F1200300FA03FC20FADA
:101D200002F001FA03FE40EA0E0021FA02F1144427
:101D3000C1E600BF70B54FF0FF0C4CF4E06C1CEA3C
:101D400011541DBF1CEA135594EA0C0F95EA0C0FB1
:101D500000F0DEF82C4481EA030621EA4C5123EA24
:101D60004C5350EA013518BF52EA033541F4801153
:101D700043F4801338D0A0FB02CE4FF00005E1FB06
:101D800002E506F00042E0FB03E54FF00006E1FB50
:101D900003569CF0000F18BF4EF0010EA4F1FF0493
:101DA000B6F5007F64F5407404D25FEA4E0E6D41D3
:101DB00046EB060642EAC62141EA55514FEAC520E4
:101DC00040EA5E504FEACE2EB4F1FD0C88BFBCF560
:101DD000E06F1ED8BEF1004F08BF5FEA500E50F111
:101DE000000041EB045170BD06F0004646EA0101D7
:101DF00040EA020081EA0301B4EB5C04C2BFD4EB09
:101E00000C0541EA045170BD41F480114FF0000E01
:101E1000013C00F3AB8014F1360FDEBF002001F06F
:101E2000004170BDC4F10004203C35DA0C341BDCE9
:101E300004F11404C4F1200500FA05F320FA04F0BB
:101E400001FA05F240EA020001F0004221F00041EF
:101E500010EBD37021FA04F642EB06015EEA430E62
:101E600008BF20EAD37070BDC4F10C04C4F1200592
:101E700000FA04F320FA05F001FA04F240EA020045
:101E800001F0004110EBD37041F100015EEA430E16
:101E900008BF20EAD37070BDC4F1200500FA05F236
:101EA0004EEA020E20FA04F301FA05F243EA0203B5
:101EB00021FA04F001F0004121FA04F220EA0200C4
:101EC00000EBD3705EEA430E08BF20EAD37070BD0A
:101ED00094F0000F0FD101F00046400041EB0101EA
:101EE00011F4801F08BF013CF7D041EA060195F0CC
:101EF000000F18BF704703F00046520043EB030386
:101F000013F4801F08BF013DF7D043EA0603704772
:101F100094EA0C0F0CEA135518BF95EA0C0F0CD07D
:101F200050EA410618BF52EA4306D1D181EA0301C3
:101F300001F000414FF0000070BD50EA410606BFBD
:101F40001046194652EA430619D094EA0C0F02D102
:101F500050EA013613D195EA0C0F05D152EA033647
:101F60001CBF104619460AD181EA030101F0004165
:101F700041F0FE4141F470014FF0000070BD41F0AE
:101F8000FE4141F4780170BD70B54FF0FF0C4CF488
:101F9000E06C1CEA11541DBF1CEA135594EA0C0FA7
:101FA00095EA0C0F00F0A7F8A4EB050481EA030EF4
:101FB00052EA03354FEA013100F088804FEA0333DB
:101FC0004FF0805545EA131343EA12634FEA0222A9
:101FD00045EA111545EA10654FEA00260EF000416A
:101FE0009D4208BF964244F1FD0404F5407402D2BC
:101FF0005B084FEA3202B61A65EB03055B084FEA4D
:1020000032024FF480104FF4002CB6EB020E75EB49
:10201000030E22BFB61A754640EA0C005B084FEA71
:102020003202B6EB020E75EB030E22BFB61A7546EE
:1020300040EA5C005B084FEA3202B6EB020E75EB39
:10204000030E22BFB61A754640EA9C005B084FEAB1
:102050003202B6EB020E75EB030E22BFB61A7546BE
:1020600040EADC0055EA060E18D04FEA051545EAAD
:1020700016754FEA06164FEAC30343EA52734FEA56
:10208000C2025FEA1C1CC0D111F4801F0BD141EACF
:1020900000014FF000004FF0004CB6E711F4801F34
:1020A00004BF01430020B4F1FD0C88BFBCF5E06F14
:1020B0003FF6AFAEB5EB030C04BFB6EB020C5FEA24
:1020C000500C50F1000041EB045170BD0EF0004E79
:1020D0004EEA113114EB5C04C2BFD4EB0C0541EAAB
:1020E000045170BD41F480114FF0000E013C90E6A8
:1020F00045EA060E8DE60CEA135594EA0C0F08BF6C
:1021000095EA0C0F3FF43BAF94EA0C0F0AD150EA6A
:1021100001347FF434AF95EA0C0F7FF425AF1046FD
:1021200019462CE795EA0C0F06D152EA03353FF425
:10213000FDAE1046194622E750EA410618BF52EAA2
:1021400043067FF4C5AE50EA41047FF40DAF52EA76
:1021500043057FF4EBAE12E74FEA4102B2F1E043F0
:1021600024BFB3F5001CDCF1FE5C0DD901F0004C7E
:102170004FEAC0024CEA5070B2F1004F40EB8300CE
:1021800008BF20F00100704711F0804F21D113F1FA
:102190003872BCBF01F00040704741F480114FEA33
:1021A0005252C2F11802C2F1200C10FA0CF320FABC
:1021B00002F018BF40F001004FEAC1234FEAD323D9
:1021C00003FA0CFC40EA0C0023FA02F34FEA430343
:1021D000CCE77FEA625307D150EA01331EBF4FF0CC
:1021E000FE4040F44000704701F0004040F0FE40E7
:1021F00040F40000704700BF0FB400B5074A83B039
:1022000004AB106853F8042B8168019300F0EEF8DA
:1022100003B05DF804EB04B0704700BF5004002029
:10222000F0B5044689B008460D4600F0AFF8A36843
:10223000114F9A890495022100F1010E012604AD87
:10224000029191040590CDF80CE006970796019550
:1022500006D4596E42F4005221F400519A81596615
:102260002046194601AA02F017FE00280CBF0A20DA
:102270004FF0FF3009B0F0BDC8710008024B0146B5
:102280001868FFF7CDBF00BF500400202DE9F041D2
:102290003C4C25688846044616461F4615B1AB6B74
:1022A000002B4FD0022E30D8002F2EDB284621469F
:1022B00002F03CFCA38900226260A2611A0628D4C5
:1022C00023F083039BB2022EA3812DD0B8F1000F1F
:1022D0003CD0012E13D09BB203F008002A4AEA63D7
:1022E00080B2C4F80080C4F81080676178B113F040
:1022F000030F18BF0027A7600020BDE8F08143F05E
:1023000001037A42A381A261E5E74FF0FF30BDE807
:10231000F0812846216902F0F1FCA38923F08303B0
:102320009BB2022EA381D1D1002004F1430243F0DD
:10233000020300250121A381A56022602261616161
:10234000BDE8F081284602F00DFCABE7002F08BF86
:102350004FF48067384602F0CFFF804628B1A3894A
:1023600043F080039BB2A381B3E74FF4806002F097
:10237000C3FF804618B9A3894FF0FF30D5E74FF46B
:102380008067ECE750040020594B000820F003015F
:1023900010F00300C0F1000051F8043B00F1040C00
:1023A0004FEACC0C6FF000021CBF22FA0CF2134370
:1023B0004FF0010C4CEA0C2C4CEA0C4CA3EB0C0239
:1023C00022EA030212EACC1204BF51F8043B0430A3
:1023D000F4D013F0FF0F1FBF013013F47F4F013013
:1023E00013F47F0F18BF0130704700BF2DE9F04F85
:1023F000C9B01C4689460A920D9002F009FF006898
:102400001590FFF7C3FF0D9D18900F941DB1AB6B96
:10241000002B00F00981B9F80C2093B299040AD47A
:10242000D9F8641042F4005321F40051A9F80C309B
:10243000C9F864109BB21A0740F1C080D9F8102087
:10244000002A00F0BB8003F01A030A2B00F0C280C0
:1024500038ACA44608942B9400250024CDE91645F9
:10246000002311932D932C931A931993109366467E
:102470000A9D2B78002B00F0DB80252B00F0D88004
:102480006A1C02E0252B00F08B8014460132237871
:10249000002BF7D10A98251A7DB12C9B2D9A0A980A
:1024A000306001332A44072B75602D922C9300F382
:1024B000A48008361099294410912378002B00F04D
:1024C000A4800023651C94F801808DF88F304FF0B4
:1024D000FF341A460E9309930A950B942B46013349
:1024E000A8F12001582900F2F883DFE811F0370243
:1024F000F603F6030303F603F603F603F603F60307
:10250000F6033E023302F60360003503F60375035B
:102510007C037C037C037C037C037C037C037C03C3
:102520007C03F603F603F603F603F603F603F6035D
:10253000F603F603F60353039D03F6039D03F60328
:10254000F603F603F6038D03F603F603D403F6034E
:10255000F603F603F603F603A302F603F603C3023B
:10256000F603F603F603F603F603F603F603F603A3
:10257000F603F6030A031C039D039D039D03D90282
:102580001C03F603F603E202F603EE020A021C0243
:102590004B02F6035402F603A300F603F6037B0294
:1025A0000A99651A78E70E9C0F9164420E94099D72
:1025B00045F00405099593F8008090E70D98494689
:1025C00001F0F2F9A0B9B9F80C3003F01A030A2BA4
:1025D0007FF43EAFB9F90E30002BFFF639AF0D98FE
:1025E0000A9A4946234601F0A3F949B0BDE8F08FA5
:1025F0004FF0FF3049B0BDE8F08F0D9849462BAA47
:1026000004F056F840B938AE54E72D9B23B10D982D
:1026100049462BAA04F04CF8B9F80C305B06E7D415
:10262000109849B0BDE8F08F284602F09BFAF2E618
:102630000A9C42E7099C0A93A20640F106820F9D7C
:10264000EB1D23F0070303F1080CD3E90045CDF897
:102650003CC001234FF0000A8DF88FA00B99002990
:1026600005DBDDF824C02CF0800CCDF824C054EA42
:10267000050040F04B830B99002940F04783002B65
:1026800040F0BD84DDF824C01CF0010F00F0B784D9
:1026900048AF302307F8413D089DEC1BDDF82CC006
:1026A00000256445A8BFA446CDF830C01495BAF102
:1026B000000F02D00C9D01350C95099B13F002030D
:1026C000129302D00C9D02350C95DDF824C01CF04D
:1026D000840CCDF84CC040F016830E9DDDF830C060
:1026E000CCEB050BBBF1000F40F30D83BBF1100FDA
:1026F0002D992C9ADFF828A527DD1B971025574622
:10270000A2460D9C06E0ABF1100BBBF1100F06F1D9
:10271000080617DD01321031072A2D912C923760FF
:102720007560F0DD204649462BAA03F0C1FF002862
:102730007FF472AFABF1100BBBF1100F2D992C9AF7
:1027400038AEE7DC5446BA461B9F01320BEB010C56
:10275000072ACDF8B4C02C9286E8000C00F39E84C2
:102760009DF88FA00836BAF1000F0FD02C9B0133D3
:102770000CF1010C0DF18F010122072BCDF8B4C033
:102780002C9386E8060000F320840836129B73B170
:102790002C9B01330CF1020C24A90222072BCDF84B
:1027A000B4C02C9386E8060000F31C840836139D01
:1027B000802D00F04C830B9A151B002D3DDD102D54
:1027C0002C9BDFF860A42CDD51460B94AA464FF0F9
:1027D000100B62460D9C0D4606E0AAF1100ABAF1F4
:1027E000100F06F1080617DD01331032072B2D926A
:1027F0002C9386E82008F0DD204649462BAA03F0FA
:1028000057FF00287FF408AFAAF1100ABAF1100FA1
:102810002D9A2C9B38AEE7DC94460B9C2A465546F5
:1028200092460133AC44072BCDF8B4C02C93C6F8C4
:1028300000A0756000F3BD830836099DEB0500F12B
:10284000A6822C9B37600133A444072BCDF8B4C07B
:1028500074602C9300F397830836099C620740D577
:102860000E9D0C982C1A002C3BDD102C2C9BDFF8B5
:10287000B0A322DD10256246DDF83480574604E01F
:10288000103C102C06F1080615DD01331032072B21
:102890002D922C9337607560F2DD404649462BAA95
:1028A00003F006FF00287FF4B7AE103C102C2D9AE1
:1028B0002C9B38AEE9DC9446BA460133A444072B7E
:1028C000CDF8B4C02C93C6F800A0746009DD0D9853
:1028D00049462BAA03F0ECFE00287FF49DAEDDF8FC
:1028E000B4C0109C0C980E9DA842ACBF241864196B
:1028F0001094BCF1000F40F0528300232C9338AEAB
:10290000B6E5DDF824C00A931CF0200300F0CE8168
:102910000F9CE31D23F0070303F108050F95D3E98E
:102920000045002396E60F9ADDF824C00A93151D92
:1029300030234FF078084CF0020CB7488DF89030F7
:102940000F951468CDF824C000258DF891801A9059
:1029500002237FE693F800802B22C0E593F80080E5
:10296000002A7FF4BCAD2022B9E50F9C0F9D24689E
:102970000E94002C05F10401FFF615AE0F9193F8AB
:102980000080ACE5DDF824C04CF0200CCDF824C06C
:1029900093F80080A3E50F9C0A9327684FF0000A84
:1029A0008DF88FA0251D002F00F06B860B9C002C4E
:1029B0003846C0F216865146224602F041FF0028F2
:1029C00000F0AB860B9C0F95C01BA042B8BF04461D
:1029D00024EAE475CDF82CA0CDF850A00C959DF814
:1029E0008FA064E6099D8C4C0A93AF061A948DF86B
:1029F0008F2047D5DDF83CC00CF1070323F0070317
:102A000003F108040F94D3E90045DDF824C01CF05D
:102A1000010F00F0F88254EA050000F0F482302340
:102A20004CF0020C8DF890308DF89180CDF824C0D8
:102A300002230FE6DDF824C00A934CF0100CCDF809
:102A400024C0099CA2063FF5FAAD099CE30600F1FB
:102A50003483DDF824C01CF0400F00F02E83DDF835
:102A60003CC0BCF800400CF1040C00250123CDF85B
:102A70003CC0EFE5099D694C0A93AF068DF88F20A5
:102A80001A94B7D4099DED0640F1EC84DDF83CC002
:102A9000DCF800400CF1040CCDF83CC00025B4E794
:102AA000DDF824C04CF0400CCDF824C093F8008031
:102AB00015E593F80080B8F16C0F194600F07C859D
:102AC000099D45F01005099509E5DDF824C00A9334
:102AD0001CF0200F8DF88F2000F0A8840F9C216837
:102AE000109CE5172B460F9D224604350F95C1E932
:102AF0000023BDE4099D45F00105099593F8008088
:102B0000EDE40F9A0F9D0A9312688DF8B820002308
:102B1000012404359A460C940F958DF88F300B9351
:102B200014932EAFC9E5099C0A93A3068DF88F2054
:102B30003CD50F9DE91D21F00701D1E900230831A3
:102B40000F9114461D46002A73F10000C0F2D18394
:102B50009DF88FA0012381E593F80080B8F12A0F3A
:102B600003F1010000F0BD86A8F13001092998BFEA
:102B7000002300F21B8610F8018B03EB830301EBAB
:102B80004303A8F130010929F5D943EAE3730B9314
:102B90000346A5E4DDF824C00A934CF0100CCDF8F0
:102BA00024C0099C8DF88F20A306C2D4DDF824C070
:102BB0001CF0100F40F0B382099C670640F1AF8211
:102BC000DDF83CC0BCF900400CF1040CE5172246CE
:102BD0002B46CDF83CC0B6E7099D45F08005099528
:102BE00093F800807BE40024A8F130010E94204685
:102BF00013F8018B00EB800001EB4000A8F13001DD
:102C00000929F5D90E906BE4099D45F00805099551
:102C100093F8008063E400BF00720008EC710008C4
:102C2000CC710008207200080F9D099C0A93EB1DCF
:102C300025078DF88F2023F0070340F10B84D3E99B
:102C40000045CDE9164503F1080CCDF83CC0DDE99F
:102C5000160103F075FC0128DDE9160140F05383ED
:102C60000022002303F064FF002840F03C859DF81B
:102C70008FA003250C95099D9E4F9F4B25F0800545
:102C80000024099500250B94B8F1470FD8BF1F46C3
:102C9000032414950BE5099D0A9345F01005099549
:102CA000DDF824C01CF020037FF432AEDDF824C030
:102CB0001CF0100240F03F82DDF824C01CF04003FD
:102CC00000F03982DDF83CC0BCF800400CF1040C87
:102CD00013460025CDF83CC0BCE40A938DF88F2044
:102CE000B8F1000F3FF491AC00234FF0010C9A466D
:102CF000CDF830C08DF8B8808DF88F300B931493D9
:102D000064462EAFD9E4DDF8B4C02CE5012B00F009
:102D1000E380022B0DF1DF0318D1DDF868C01946FE
:102D200004F00F00220942EA05720F462B091CF835
:102D30000010397052EA030014461D4607F1FF31B6
:102D4000EED1089DCDE91E23EC1BA7E4E00840EA84
:102D5000457004F00702E908303250EA010C1F46C2
:102D60001A7004460D4603F1FF33EFD1099CCDE9FB
:102D70001C01E007394640F1B880302A00F0B580E8
:102D8000089D1F463023EC1B01F8013C86E4B8F196
:102D9000650F40F3B780DDE9160100220023CDF86E
:102DA0001CC003F0BBFEDDF81CC0002800F02E8123
:102DB0002C9B524A326001330CF1010C0122072B8B
:102DC000CDF8B4C02C93726000F36C830836259B59
:102DD000119CA34203DB099DEF077FF53EAD2C9BC1
:102DE000189D159C34600133AC44072BCDF8B4C05A
:102DF00075602C9300F3E9830836119D6C1E002C3E
:102E00007FF72BAD102C2C9BDFF8F4A040F39C81B6
:102E100010256246DDF83480574604E00836103C41
:102E2000102C40F38F8101331032072B2D922C93FD
:102E300037607560F2DD404649462BAA03F038FC46
:102E400000287FF4E9AB2D9A2C9B38AEE7E70E986B
:102E50000C99451A002D7FF7AEAC102D2C9BDFF896
:102E6000A0A02CDD51461294AA464FF0100B6246EA
:102E70000D9C0D4606E0AAF1100ABAF1100F06F1FA
:102E8000080617DD01331032072B2D922C9386E8AC
:102E90002008F0DD204649462BAA03F009FC002853
:102EA0007FF4BAABAAF1100ABAF1100F2D9A2C9B3D
:102EB00038AEE7DC9446129C2A46554692460133CA
:102EC000AC44072BCDF8B4C02C93C6F800A07560B5
:102ED00000F3028208366EE4002D08BF0A2C80F051
:102EE0003F8148AF303407F8414D089DEC1BFFF798
:102EF000D5BB00BFE0710008DC7100081C7200083F
:102F000020720008119C012C2C9C40F3A7810134F5
:102F10000CF101050123072C2D952C94376073606B
:102F200000F3B781083618981599316001340544CB
:102F3000072C2D952C94706000F3C2810836DDE9D2
:102F400016010022002303F0E9FD002840F0BD80B7
:102F5000119A0134531E01371D44072C2C942D95D2
:102F60003760736000F389810836DDF864C001348E
:102F7000AC44199DCDF8B4C027AB072C2C9486E83F
:102F800028007FF769AC0D9849462BAA03F090FB07
:102F900000287FF441ABDDF8B4C038AE5DE40D9895
:102FA00049462BAA03F084FB00283FF4A6ACFFF7A8
:102FB00033BB0D9849462BAA03F07AFB00287FF417
:102FC0002BABDDF8B4C038AE37E40D9849462BAAD8
:102FD00003F06EFB00287FF41FABDDF8B4C038AE01
:102FE000FFF7D4BB0D9849462BAA03F061FB0028DC
:102FF0007FF412ABDDF8B4C038AEFFF7D8BB0B9C42
:1030000038AFFFF74BBB0223FFF724BB259B002BF8
:1030100040F35482119C149DDDF84480AC42A8BF5B
:103020002C46002CB8440BDD2C9B37600133A444A4
:10303000072BCDF8B4C074602C9300F3FB820836E4
:10304000149D24EAE4742C1B002C40F3B180102C56
:103050002C9BDFF8F0A640F3188251461025BA46A3
:103060006246DDF834B00F4604E00836103C102C00
:1030700040F3078201331032072B2D922C933760D7
:103080007560F2DD584649462BAA03F011FB002873
:103090007FF4C2AA2D9A2C9B38AEE7E70D984946DB
:1030A0002BAA03F005FB00287FF4B6AA9DF88FA099
:1030B000DDF8B4C038AEFFF756BB0F9D2C68043561
:1030C0000F9501230025FFF7C5BA119B5F1E002F46
:1030D0007FF74BAF102FDFF86CA640F3E6804FF080
:1030E0001008DDF834B004E00836103F102F40F32C
:1030F000DC8001341035072C2D952C94C6F800A0E7
:10310000C6F80480F0DD584649462BAA03F0D0FAF1
:1031100000287FF481AA2D9D2C9C38AEE5E70F9DF9
:10312000DDF83CC02C680CF1040CE517CDF83CC070
:1031300022462B4607E50F9D2C6804350F95002588
:10314000FFF788BA9446BA460133A444072BCDF85A
:10315000B4C02C93C6F800A074607FF77DAB12E773
:103160000DF1DF0B204629460A22002303F030FD33
:1031700030328BF80020204629460A22002303F033
:1031800027FD04460D4654EA050C5F460BF1FF3B54
:10319000E8D1089DEC1BFFF781BA0D9849462BAA90
:1031A00003F086FA00287FF437AADDF8B4C038AE01
:1031B000149D259C2F44119DAC4240DB099DE807DE
:1031C0003DD41198C7EB0805041BAC42B8BF254697
:1031D000002D0BDD2C9B37600133AC44072BCDF861
:1031E000B4C075602C9300F35B82083625EAE57560
:1031F000641B002C7FF731AB102C2C9BDFF844A50F
:10320000A2DD10256246DDF83480574603E008361B
:10321000103C102C96DD01331032072B2D922C938D
:1032200037607560F3DD404649462BAA03F040FA4B
:1032300000287FF4F1A92D9A2C9B38AEE8E72C9B4F
:10324000159D3560189D75600133AC44072BCDF892
:10325000B4C02C9300F308820836B2E7099DE90751
:103260003FF555AE01340CF101050123072C2D95D6
:103270002C94376073607FF777AE0D9849462BAA80
:1032800003F016FA00287FF4C7A92D9D2C9C38AEB8
:103290006BE60D9849462BAA03F00AFA00287FF442
:1032A000BBA92D9D2C9C38AE3DE601343D44072C36
:1032B0002D952C94C6F800A077607FF755AEDCE71B
:1032C0000D9849462BAA03F0F3F900287FF4A4A92E
:1032D0002D9D2C9C38AE32E60D9849462BAA03F062
:1032E000E7F900287FF498A9DDF8B4C038AEFFF7FD
:1032F00062BA4FF02D0A644265EB45058DF88FA048
:103300000123FFF7ABB903F01BF9002800F023817C
:103310000B9D013528F0200A00F07582BAF1470FA5
:1033200004D10B9D002D08BF01250B95DDE9162367
:10333000DDF824C0002B4CF4807CCDF848C0C0F2EE
:103340005982DDE91645CDE920454FF0000BB8F173
:10335000660F00F03D82B8F1460F00F09582BAF199
:10336000450F0ABF0B9C0B9D651C022025A926AAB0
:1033700029AB8DE821000392049302910D98DDE9B9
:10338000202300F00DFCB8F1670F074602D0B8F11A
:10339000470F05D1DDF824C01CF0010F00F0448276
:1033A000BAF1460F07EB050400F0B081DDE920011A
:1033B0000022002303F0B2FB002840F0A581299BE6
:1033C0009C4206D930215A1C29921970299B9C4293
:1033D000F9D8DB1BBAF1470F119300F07C81B8F1EB
:1033E000650F40F39D82B8F1660F00F00F82259CB7
:1033F0001494119C149DAC4200F3DD81DDF824C0CF
:103400001CF0010F40F05C8225EAE5732C464FF07A
:103410006708BBF1000F40F06C81129D0C93099579
:10342000CDF82CB09DF88FA0FFF741B9DDF824C08E
:103430001CF0100F40F0AB80DDF824C01CF0400FF2
:1034400000F03D810F9C109D236804340F941D8073
:10345000FFF70EB8D3E900450833CDE916450F93C1
:10346000FFF7F5BB099C640640F18A80DDF83CC09B
:10347000BCF800400CF1040C0025CDF83CC0FFF76F
:10348000C4BA94463A46574692460133A444072BA1
:10349000CDF8B4C02C93C6F800A074603FF77DAEA1
:1034A000083685E60D9849462BAA03F001F9002855
:1034B0007FF4B2A8DDF8B4C038AE88E42C9A9D49F8
:1034C000316001320CF1010C0121072ACDF8B4C0A2
:1034D0002C92716063DC08361C462CB9119D1DB915
:1034E000099DED077FF5B9A92C9B189A159D3560AC
:1034F00001336244189D2D92072B75602C9300F3C5
:10350000488108366442002C40F38680102CDFF896
:1035100034A240F39E8051461025BA46DDF834802F
:103520000F4604E00836103C102C40F38F80013326
:103530001032072B2D922C9337607560F2DD4046D8
:1035400049462BAA03F0B4F800287FF465A82D9A09
:103550002C9B38AEE7E7099C774F784B9DF88FA0FE
:103560000B904FF0030C24F080040994CDF830C088
:103570001490B8F1470FD8BF1F466446FFF797B8BD
:103580000F9D2C6804350F950025FFF73EBA0F9C60
:10359000109D236804340F941D60FEF769BF0D98D9
:1035A00049462BAA03F084F800287FF435A8259C0F
:1035B000DDF8B4C038AE90E7099C91F8018044F082
:1035C000200401330994FEF78ABF0D9849462BAABF
:1035D00003F06EF800287FF41FA8DDF8B4C038AE01
:1035E0000BE4CDF82CA0FEF7D1FE0F9520EAE07C8D
:1035F0000B9DCDF830C0044614959DF88FA0FFF7C1
:1036000056B80D9849462BAA03F052F800287FF4CB
:1036100003A82D9A2C9B38AEDDF844C0119C37606E
:1036200001339444072BCDF8B4C02C9374607FF71A
:1036300013A9A8E40D9849462BAA03F039F80028ED
:103640007EF4EAAFDDF8B4C038AEF9E43946574647
:103650008A4601332244072B2D922C93C6F800A0F2
:103660007460CEDC0836D7E70D9849462BAA03F0E4
:103670001FF800287EF4D0AF259CDDF8B4C038AE2A
:103680009FE50B9C1497062C28BF062424EAE47CB3
:10369000BA460B970F95CDF830C0294FFFF707B802
:1036A0000D9849462BAA03F003F800287EF4B4AF26
:1036B000259C1199DDF8B4C00C1B38AE96E5DDF8F9
:1036C0003CC0109CDCF800300CF1040CCDF83CC080
:1036D0001C60FEF7CDBE259BDC1C35DB0B9C9C42A1
:1036E00032DB149385E64FF02D0A8DF88FA0FFF79B
:1036F000C0BA129D09954FF02D0A00250C938DF844
:103700008FA00B95FEF7D6BF234662E63B78302BA1
:1037100000F0C180259D2C4448E624EAE47CCDF8E5
:1037200030C00B9C0F950B9014909DF88FA0FEF766
:10373000BEBF00BF1C720008E8710008E4710008F9
:103740001472000820720008A8F10208013B002B47
:103750002593BABF5B422D222B22092B8DF89C802A
:103760008DF89D2062DC303330228DF89F308DF84B
:103770009E2028AB119D119C27AA9A1A012D1992FF
:10378000144440F3A4800134002524EAE473149522
:103790003FE60D9849462BAA02F08AFF00287EF4E6
:1037A0003BAF259C2D9A2C9B38AEABE600240346FC
:1037B0000B94FEF795BE149C119D002CD4BFC4F150
:1037C000020401242C4424EAE4734FF0670820E645
:1037D0000B9C0194032025A926AA29AB00900392F3
:1037E000049302910D98DDE9202300F0D9F90B9D97
:1037F0000746D5E517991698209001F100412191CF
:103800004FF02D0BA3E506240B948FE5259D149511
:10381000002D0B9C78DD002C4BD1099DE80748D486
:10382000149C24EAE473F4E5299BD2E50DF1AA0087
:103830003E4DDA1785FB0351C2EBA10101EB810478
:103840000246A3EB440303F13000092910700B4634
:1038500002F1FF30ECDC01F130030DF1AB04D9B221
:10386000844202F8011C5DD90DF19D00134601E070
:1038700013F8011BA34200F8011FF9D10DF5907C4C
:10388000C2EB4C03F63B75E70B9D0195032025A980
:1038900026AA29ABA2E7DDE920010022002303F0DC
:1038A0003DF900287FF436AFC5F1010525952C447C
:1038B0007CE50B9D6C1C149D2C4424EAE473A8E564
:1038C000149D6C1C24EAE4734FF06708A1E5DDF851
:1038D00024C01CF001037FF456AF149324EAE47370
:1038E00097E50F9DDDF83CC02D6893F801800B959E
:1038F0000CF10401002D0F910346BEF6F0AD4FF020
:10390000FF340B94FEF7EBBD2CB9099DE90702D4F7
:1039100001231C467DE50B9DAC1C24EAE47378E58D
:10392000259B13E70DF19E0324E700BF67666666DB
:103930002DE9F0430C46ADF26C4DB1F80C90E769FF
:10394000496EB4F80E8019911AAD4FF480664FF0AD
:10395000000E079729F00209676A009569460495E9
:1039600002960596ADF80C90ADF80E800997CDF84B
:1039700018E00646FEF73AFD051E07DB30466946AD
:1039800001F0D4F8002818BF4FF0FF35BDF80C3017
:103990005B0603D5A38943F04003A38128460DF2BB
:1039A0006C4DBDE8F08300BF2F4B1B6870B5064619
:1039B0000C4613B19A6B002A36D0A589ABB2190711
:1039C0000CD52269AAB113F001011ED06369002150
:1039D0005B42A361A160F2B1002070BDDA063BD565
:1039E0005B0725D4226945F00803A3819BB2002A16
:1039F000E9D103F42071B1F5007FE4D030462146CF
:103A000001F00AFCA3892269DDE7980758BF6169C4
:103A1000A160002AE0D1A3891A06DDD543F0400356
:103A2000A3814FF0FF3070BD184601F09BF8C4E74A
:103A3000216B49B104F14003994203D0304601F0B3
:103A40005DF9A5890023236325F02405002322695D
:103A50006360ADB22260C6E745F0400509233360DC
:103A60004FF0FF30A58170BD500400202DE9F04FCC
:103A700003690D699D4283B0834600F38B80013D4D
:103A800001F1140400F1140A54F825205AF82530E5
:103A90000132B3FBF2F8AA00914600925244A144CD
:103AA0000192B8F1000F3DD04FF0000E7046224653
:103AB00053468C4652F8046B1968B7B2360C07FBB4
:103AC00008EE06FB08F606EB1E461FFA8EF7C71B2C
:103AD000B0B217FA81F7C0EB114000EB2740BFB23C
:103AE00047EA0047914543F8047B4FEA20404FEAFC
:103AF000164EDFD2009A5AF80230614693B9019A05
:103B0000131F9A450CD252F8043C4BB9A2F108039A
:103B100002E01A68043B1AB99A4505F1FF35F8D35B
:103B2000CBF81050584602F039FA00282EDB08F185
:103B300001085346002254F8046B1868B1B2521AB7
:103B4000360C12FA80F1C6EB104202EB214289B228
:103B500041EA0241A14543F8041B4FEA2242EAD25E
:103B60005AF825200AEB850382B91A1F92450BD219
:103B700053F8042C42B9083B02E01A68043B1AB916
:103B80009A4505F1FF35F8D3CBF81050404603B005
:103B9000BDE8F08F002003B0BDE8F08F000000000A
:103BA0002DE9F04F016C9BB00446279D92469B4641
:103BB00049B1436C4B60012202FA03F38B6001F0C0
:103BC000F5FF00232364BBF1000FD94633DB00234C
:103BD0002B60A54B1A4609EA0303934214D05046C2
:103BE00059460022002302F099FF804648B3269EE2
:103BF000289D01233360002D00F0C9809B48286078
:103C000001381BB0BDE8F08F269D42F20F732B6088
:103C1000BAF1000F00F0A4809548289E002EF0D045
:103C2000C378002B00F0B58000F10803289D2B60BD
:103C30001BB0BDE8F08F01232BF000492B60CB4671
:103C4000C7E719AA18AB8DE80C00204652465B4620
:103C500002F032FA5FEA19550A9040F08A80189F04
:103C6000199D6FF482633D449D42C0F294821F33DC
:103C700005F212425B1B09FA03F32AFA02F243EA45
:103C80000200FDF7E1FF0126013DB846A1F1F87100
:103C900016960022774BFDF799FE6DA3D3E900231A
:103CA000FEF748F86CA3D3E90023FDF791FE064622
:103CB00028460F46FDF7D8FF69A3D3E90023FEF796
:103CC00039F802460B4630463946FDF781FE064676
:103CD0000F4602F055FF3946079000223046002378
:103CE00002F026FF002840F02882079E162E00F2E0
:103CF0002182614B03EBC603D3E9000152465B46C8
:103D000002F034FF002800F04B82013E07960026A7
:103D10000E96C5EB0805013D069500F125820025AC
:103D20000895079E002EC0F21682069D0D9635441A
:103D3000002606950C96249D092D2CD8052DC4BF70
:103D4000043D2495249EA6F10203CCBF0025012545
:103D5000032B22D8DFE813F0B7039E02C0039A04B6
:103D6000464A434BC9F3130000280CBF10461846BF
:103D700053E7CBF3130343F07F51CDF858805046FF
:103D8000A5F2FF3541F44011DDF8608081E73C4841
:103D900037E7C31C4AE700252495002565642946BA
:103DA000204601F0DDFE4FF0FF39012609902595F0
:103DB0002064CDF83C900B96199B002BC0F2D2806A
:103DC000079E0E2E00F3CE802B4B03EBC603D3E9E8
:103DD0000001CDE9040125990029C0F28083DDE9C5
:103DE000042359465046FEF7CFF802F0C9FE0546B7
:103DF000FDF73AFFDDE90423FDF79CFF02460B4681
:103E000050465946FDF7E2FD099A05F13003B9F134
:103E1000010F06460F46137002F1010B64D0002219
:103E2000184BFDF787FF0022002306460F4602F0DD
:103E300075FE002840F08180DDF82480099D039400
:103E4000C844DDE904AB05F1020928E0AFF30080C6
:103E500061436F63A787D23FB3C8608B288AC63F90
:103E6000FB799F501344D33F0000F07F1D72000880
:103E70003C7200080000F83F5072000830720008E1
:103E80001C72000800002440FDF754FF00220023AC
:103E900006460F4602F042FE002840F0C18352461B
:103EA0005B4630463946FEF76FF802F069FE05467C
:103EB000FDF7DAFE52465B46FDF73CFF02460B4635
:103EC00030463946FDF782FD05F1300EC14509F84F
:103ED00001EC4C4606460F464FF00002A74B09F195
:103EE0000109D1D1A346039C32463B4630463946B0
:103EF000FDF76EFD06460F463246DDE904013B46FE
:103F000002F016FE40B9DDE9040132463B4602F0FC
:103F100005FE90B1EB0710D51BF8015C099A05E08E
:103F20009A4200F0288413F8015C9B46392D0BF16E
:103F3000FF33F5D06A1CD2B21A7020460A9901F0FC
:103F400035FE079E269D731C289E00228BF80020BC
:103F50002B60002E00F025830998C6F800B01BB036
:103F6000BDE8F08F0B9D002D00F00381249E012EF3
:103F700040F3DC820C9E09F1FF37BE42C0F2898318
:103F8000F71BB9F1000FC0F28684089D4B46089ECE
:103F90001E440896069E20461E440121069601F006
:103FA000A9FE064665B10698002809DD0346089972
:103FB000AB42A8BF2B46C91AC01A0891ED1A069049
:103FC0000C9A002A1DDD0B9B002B00F05883002F5C
:103FD00011DD31463A46204601F034FF06463146AF
:103FE0000A9A204601F090FE0A998046204601F088
:103FF000DDFDCDF82880DDF830E0BEEB070240F0B3
:104000008F822046012101F075FE80460D98002820
:1040100005DD414620460D9A01F014FF80462499A3
:10402000012940F3C18200270D98002840F0AF829B
:104030000120069B034413F01F0300F0A180C3F18D
:104040002002042A40F3B5840899069AC3F11C03A0
:1040500019441A4408911D4406920899002905DD67
:104060000A99089A204601F03BFF0A90069A002A16
:1040700004DD4146204601F033FF80460E9B002BB5
:1040800040F06A82B9F1000F40F3A6820B98002835
:1040900040F088800B9D0A9FDDF824B006E0394689
:1040A00020460A22002301F08BFD07463846414690
:1040B000FFF7DCFC30300BF805000135A945EEDCDC
:1040C000DDF824B00A978246B9F1010FACBFCB44AA
:1040D0000BF1010B00250A990122204601F000FF97
:1040E00041460A9001F05AFF002840F309831BF86B
:1040F000012C099905E0994200F08B8213F8012CFC
:104100009B46392A0BF1FF33F5D001321A70414634
:10411000204601F04BFD002E3FF40FAF2DB1B5420C
:1041200003D02946204601F041FD3146204601F0EA
:104130003DFD02E701260E96EBE50798FDF794FD9D
:1041400032463B4602F0EAFC00287FF4CEAD079EE3
:10415000013E0796C9E5079E089DAD1B089575426F
:1041600000260C950D96E6E56D420026089506960C
:10417000D7E50C9F089D0B9E14E700BF000024406C
:104180001C23DDF820E006989E441844CDF820E07A
:104190001D44069061E7A748401B0AFA00F070E54D
:1041A0000E90B6E5002D05DD31462A46204601F089
:1041B00097FE0646002F40F0E8823746099D099891
:1041C0004D4408950AF001050B95DDF82890451C33
:1041D0000AE001F0F5FC394606460A222046002393
:1041E00001F0EEFC0746013541464846FFF73EFC2C
:1041F00031468346484601F0D1FE414603903A4697
:10420000204601F0EFFEC268691E03460BF1300A3A
:104210000691002A40F0938119464846029301F026
:10422000BDFE029B024619462046029201F0BEFCEA
:10423000029A2AB9249B1BB90B98002800F091839D
:10424000039B002BC0F2348205D1249818B90B9936
:10425000002900F02D82002A00F3AB82DDF820E077
:1042600005F801AC7545AB4600F0B38249460A2219
:104270000023204601F0A4FCBE4281463146204680
:104280004FF00A024FF00003A3D101F099FC06465B
:104290000746A8E700260B96079EDDF894E0B64493
:1042A0000EF10109B9F1000FCDF83CE04E4640F3A4
:1042B00050810021172E61640AD9012204235B007A
:1042C00003F11400B042114602F10102F7D9616412
:1042D000204601F045FC0E2E099020643FF66CAD9F
:1042E000002D3FF469AD079D002DCDE912AB40F3E1
:1042F0001B82514B05F00F0203EBC2032D11D3E9D2
:104300000067EB0640F1CD814C4B50465946D3E94E
:104310000823FDF739FECDE9100105F00F054FF038
:1043200003088DB1DFF814A130463946EE0705D5F4
:10433000DAE9002308F10108FDF7FCFC6D100AF131
:10434000080AF3D106460F46DDE9100132463B4626
:10435000FDF71AFE82468B460E9D45B150465946E2
:104360000022374B02F0E4FB002840F0A9824046CF
:10437000FDF77AFC52465B46FDF7DCFC0022314B30
:10438000FDF726FB0646A1F15077B9F1000F00F0CA
:104390005A81079D1795C8460B9D002D00F022827B
:1043A000254B294903EBC80353E902230020FDF7FD
:1043B000EBFD32463B46FDF709FBCDE910015946BE
:1043C000504602F0DDFB0546FDF74EFC02460B466B
:1043D00050465946FDF7FAFA3035099ECDE90401F9
:1043E000EDB23570DDE91001DDE9042306F1010BC2
:1043F00002F0BCFB002840F0A982DDE90423002084
:104400000F49FDF7E3FA02460B46DDE9100102F021
:10441000ADFB002840F0A082B8F1010F40F380818D
:10442000B044CDF85090A246C146DDE90467DDE90D
:10443000104519E0EEFBFFFF5072000818730008EA
:104440000000F03F00001C400000E03F0020A849B1
:10445000FDF7BCFA22462B4602F06AFB002840F02A
:104460007982CB4500F05981204629460022A14B94
:10447000FDF760FC00229F4B04460D46304639464E
:10448000FDF758FC0F46064602F07AFB8046FDF722
:10449000EBFB02460B4630463946FDF797FA08F12A
:1044A00030085FFA88F822462B460BF8018B064647
:1044B0000F4602F03DFB32463B460028C6D0179E11
:1044C0000796544639E500260B96259800283CDDD2
:1044D00006460F908146ECE601260B96F5E7B9F10A
:1044E000000F3FF77CAC40F0C6800022824BDDE934
:1044F0000401FDF71FFC52465B4602F02DFBC84647
:104500004E4600287CD0259DDDF824B0ED4307956C
:104510004146204601F04AFB002E7FF406AE0CE532
:104520000A99204601F08EFC0A906AE5169D002D3E
:1045300000F0B78103F233430C9F089D27E5014645
:10454000204601F033FB01227AE6012625960F96DC
:10455000B14600216164BBE60A98414601F01EFDA8
:104560000028BFF68FADDDF81CE00A990EF1FF3E82
:1045700020460A220023CDF81CE001F021FB0A901E
:104580000B98002840F00782DDF83C907AE5D8F8D7
:10459000103008EB8303186901F05EFBC0F12000C6
:1045A00047E50998FFF72DBBBAF1000F7FF43BAD4B
:1045B000CBF31303002B40F07B812BF000473F0D22
:1045C0003F05002F3FF430AD089A069B01320133BE
:1045D00008920693012727E5249902297FF756AD13
:1045E000B9F1000F8FD141464B460522204601F01C
:1045F000E7FA804641460A9801F0D0FC002882DDA7
:10460000079D01350795099D31232B7005F1010B9D
:104610007EE7079809993123013007900B7076E502
:10462000A346039C89E44046FDF71EFB02460B4669
:1046300050465946FDF77EFB0022304BFDF7C8F986
:104640000646A1F150775046594600222A4BFDF705
:10465000BDF932463B4682468B4602F087FA002877
:1046600040F0BC80324607F100435046594602F004
:104670005FFA002854D04FF00008464643E70A99F5
:104680000C9A204601F0DEFB0A90BAE401260B9654
:1046900002E60C9D0D9E0C977B1B1E440D96002779
:1046A0006FE4DDE912014FF00208CDE9100138E6B0
:1046B000002ACDF82890D94611DD0A99012220461A
:1046C00001F00EFC41460A9001F068FC002840F31E
:1046D0005B81BAF1390F00F01A8109F1310A069BAA
:1046E000354683F800A003F1010B3E460FE500BFFD
:1046F0000000F03F000024400000144000001C4077
:1047000003D11AF0010F7FF4F2AC5B469B46013BEC
:104710001BF8012C302AF9D0F9E4DDF8509054460A
:10472000DDE912ABFFF748BB079E7542002D00F094
:10473000C280A34B05F00F0203EBC203D3E90023B1
:10474000DDE91201FDF7F6FA2D1182468B4600F0E5
:104750002D819C4E4FF00208EA0705D5D6E90023CB
:1047600008F10108FDF7E6FA6D1006F10806F3D12D
:1047700082468B46F0E5079E099D30222A7001365D
:10478000312207961A70FFF7D8BB7168204601F0F6
:10479000E7F933699A1C0546920006F10C010C30CA
:1047A00001F096F820462946012201F099FB0746C0
:1047B00004E5BAF1390FCDF8289000F0A880069DE5
:1047C0000AF101032B703546069E06F1010B3E46A9
:1047D0009DE43546CDF828903E467CE44FF0000835
:1047E00046460DE7764908F1FF3501EBC501324633
:1047F0003B46D1E900011095FDF79CFACDE9140183
:104800005946504602F0BCF90546FDF72DFA02461E
:104810000B4650465946FDF7D9F8DDF824E030350F
:10482000B8F1010F06460F468EF800500EF1010B4D
:104830001ED0099D6B1E03EB080A0022624BFDF798
:1048400079FA0F46064602F09BF98046FDF70CFA0E
:1048500008F1300802460B4630463946FDF7B6F8F7
:1048600005F8018F5545E8D1109D06460F46AB442B
:104870000022564BDDE91401FDF7AAF832463B460B
:1048800002F056F900284DD0179E07961BF8015CE0
:10489000099AFFF74BBB089E0023C9EB0605FFF7FB
:1048A00076BB189B0C9F089DC3F13603FFF76FBBC7
:1048B0005746FFF7B9BBDDE912AB4FF002084BE5F5
:1048C000B9F1000F3FF4AFAE0F9E002E7FF728AF77
:1048D00000223D4B50465946FDF72CFA824608F11E
:1048E00001008B46FDF7C0F902460B46504659467B
:1048F000FDF720FA0022364BFDF76AF8079DDDF838
:104900003C80013D0646A1F15077179544E53546B8
:10491000069B069E09993922327003F1010B3E462F
:10492000FFF7EFBBDDE9142300202849FDF74EF81F
:1049300032463B4602F01AF900283FF4F1AE5B46DE
:104940009B46013B1BF8012C302AF9D0179D079597
:10495000FFF7F3BA45465446179E0796099AFFF7A4
:10496000E5BABAF1390FCDF82890D0D0039B35467F
:10497000002B069EC8BF0BF1310A86F800A006F195
:10498000010B3E46FFF7C3BB7FF4A9AE1AF0010F3F
:104990003FF4A5AE9DE6314620460A220023DDF80D
:1049A0003C9001F00DF90646FFF76CBB4FF0020892
:1049B000D2E43FF452ABC3F13C03FFF7E2BB00BFCC
:1049C0005072000818730008000024400000E03F07
:1049D00000001C40AFF300808B899AB22DE9F041B2
:1049E0000D46110780463CD46A6843F40063002AF0
:1049F000AB8159DDAC6A002C4BD09BB203F48052E2
:104A0000002192B2D8F80060C8F80010002A4FD0F8
:104A10002A6D5F0705D569682B6B521A0BB1EB6BDA
:104A2000D21A4046E9690023A047441C4AD0AA890B
:104A30002B692B6022F400639BB200226A60DA04C7
:104A4000AB814CD4296BC8F8006011B305F1400369
:104A5000994202D0404600F051F900202863BDE899
:104A6000F0812E69AEB12C682E6091070CBF6B6986
:104A70000023A41BAB600AE0324623466F6AE96953
:104A80004046B8470028C0EB0404064404DD002C6F
:104A9000F2DC0020BDE8F081AB8943F04003AB813C
:104AA0004FF0FF30BDE8F081EA6B002AA2DCF0E7AE
:104AB00001234046E969A047431C02461ED0AB894A
:104AC000AC6AA6E7D8F800305BB9A9896B6021F41D
:104AD00000639BB22A69AB81DB042A60B2D52865EA
:104AE000B0E71D2B01D0162B19D1AA892B692B6099
:104AF00022F400620023AA816B60A3E7D8F800309B
:104B0000002BDCD01D2B07D0162B05D0AB8943F032
:104B10004003AB81BDE8F081C8F80060B9E7AB891C
:104B200043F04003AB81BDE8F08100BF10B50446FF
:104B300082B008B1836B53B1B1F90C0008B902B06F
:104B400010BD204602B0BDE81040FFF745BF0191FF
:104B500000F008F80199EFE7014900F029BB00BF18
:104B6000F56700082DE9F04F846B83B00746002CF1
:104B700065D145683348F8630423032107F53B7288
:104B8000C7F8E412C7F8E822C7F8E04205F15C0074
:104B9000AB812C606C60AC606C66EC812C616C61EC
:104BA000AC612146082200F08DFFBE68DFF898B0A6
:104BB000DFF898A0DFF89890DFF89880ED61012386
:104BC0000922C5F820B0C5F824A0C5F82890C5F87A
:104BD0002C802146F381B28134607460B4607466C5
:104BE00034617461B461082206F15C00019300F045
:104BF00069FFFD68F66112200222C6F820B0C6F8EF
:104C000024A0C6F82890C6F82C802146A881EA8105
:104C10002C606C60AC606C662C616C61AC6105F101
:104C20005C00082200F04EFF019BED61C5F820B04A
:104C3000C5F824A0C5F82890C5F82C80BB6303B044
:104C4000BDE8F08F594B0008B5650008D96500082C
:104C50001166000831660008704700BF704700BF4A
:104C6000F8B5234D0F46044600F076FFAB685E684A
:104C700026F00306F11B01F6EF7121F47F6121F0AC
:104C80000F01A1F58057B7F5805F07DB20460021B3
:104C900001F07EFCAB683344984204D0204600F01B
:104CA0005DFF0020F8BD2046794201F071FC013023
:104CB0000DD0104BAA681968F61B46F00106204675
:104CC000C91B5660196000F049FF0120F8BD20465D
:104CD000002101F05DFCAB68C21A0F2ADEDD064D33
:104CE00004492D6842F00102401B5A600860D5E774
:104CF000B0040020DC080020BC0800202DE9F041B1
:104D00000D460646002955D000F026FF55F8041C34
:104D1000DFF874C121F00103A5F10804E218DCF802
:104D200008005768904227F0030769D011F001018D
:104D3000576032D00021D0194068C00706D43B44E8
:104D4000906800294ED0D268C260906043F00102A2
:104D50006260E350E1B9B3F5007F2DD35A0A042A0B
:104D60006AD89809383041000CEB810C4649DCF8D0
:104D70000820624566D0516821F003018B4202D2BF
:104D800092689445F7D1D368E360A2609C60D460D8
:104D90003046BDE8F04100F0E1BE55F8085C641B08
:104DA0000CF10808A06840452B4443D0E568C56075
:104DB000A860C0E7BDE8F081DB080CEBC302012569
:104DC000DCF804009168A1609B1005FA03F3184316
:104DD000E260CCF8040094603046CC60BDE8F0415D
:104DE00000F0BCBE294DA842ADD143F00102CCF881
:104DF0001440CCF81040E060A0606260E350C7E768
:104E00001F44CB0707D455F8083CE41A1F44A26896
:104E1000E368D3609A601E4B1B6847F001029F4213
:104E20006260CCF80840B3D31A4B30461968FFF7DC
:104E300017FFADE701217EE7142A0CD802F15B00D1
:104E4000410091E74B688010012505FA00F003430B
:104E50004B60134698E7542A03D8180B6E30410074
:104E600082E7B2F5AA7F03D8D80B773041007BE701
:104E700040F254518A4203D8980C7C30410073E7C9
:104E8000FC217E2070E700BFB0040020B8040020A1
:104E9000B8080020D80800202DE9F04F936883B0AF
:104EA000164681460C462BB38B89190726D52269F5
:104EB00022B303F0020292B23568002A2CD04FF0E0
:104EC000000ADFF8E8B2D046D84534BF43465B4617
:104ED00052464846B8F1000F4FD0E169676AB847BB
:104EE000002856DDB3681B1A8244C0EB0808B36083
:104EF000002BE9D1002003B0BDE8F08F48462146E1
:104F0000FEF752FD002840F04881A389356803F080
:104F1000020292B2002AD2D113F0010A42D1D04645
:104F2000B8F1000F23D09A05A76876D5B845C0F030
:104F3000A48013F4906F40F0B2802068BB465146C5
:104F40005A4600F05FFDA2682168D21B01EB0B03FB
:104F5000A26023604246B3689B1A9244C2EB0808E1
:104F6000B360002BC6D0A389B8F1000FDBD1D5F810
:104F700000A0D5F804800835D2E7D5F800A0D5F810
:104F800004800835A0E748462146FFF7CFFD0028FA
:104F900059D0A38943F040034FF0FF30A38103B001
:104FA000BDE8F08F9246019293469046B8F1000F0B
:104FB0002BD0019F002F64D020682169D4F808C04D
:104FC0006269C24534BF5346434688421F4603D9EF
:104FD0009444634500F3AE80934236DB1346676A20
:104FE000E16948465A46B847071ED2DDBAEB070AC0
:104FF0003AD0B368DB1BBB44C7EB0808B360002B97
:105000003FF478AFB8F1000FD3D10027D5F800B046
:10501000D5F8048001970835C8E7206823699842CD
:1050200002D86369984572D2B84538BF47463A46B8
:10503000514600F0E7FCA3682268DB1B3A44A360FA
:105040002260002B9FD03A4685E71A4659460093C6
:1050500000F0D8FC009BA1682268C91ABAEB070AC5
:105060001344A1602360C4D148462146FFF75EFD8A
:1050700000288ED1CDF804A0BBE720684746C34680
:105080005DE758460A21424600F0DAFB00287FD04F
:1050900000F1010A0127CBEB0A0A01978CE722688D
:1050A00021696769C1EB020C07EB47070CF10102AC
:1050B00007EBD77742447F10974234BF17463A46F2
:1050C0005B054FD511464846CDF800C000F01CF9ED
:1050D000DDF800C08346002862D062462169CDF821
:1050E00000C000F0F5FBA289DDF800C022F4906258
:1050F00042F08002A2810BEB0C00CCEB0702C4F85B
:1051000010B067612060A2604746C34617E76FF0A2
:105110000042904538BF424692FBF3F202FB03F394
:10512000676AE16948465246B84700287FF731AFC1
:10513000024610E762465946CDF800C000F062FC16
:10514000DDF800C023686344236048462146CDF85B
:1051500000C0FFF7EBFCDDF800C000287FF419AFBA
:10516000674643E74846CDF800C001F003F8DDF894
:1051700000C083460028BED148462169FFF7BEFD26
:10518000A3890C2223F080039BB2C9F8002001E719
:10519000012708F1010A01970EE74FF0FF30AAE658
:1051A0000C23C9F80030A389F4E600BF00FCFF7FA0
:1051B0002DE9F04110F5387788461AD000267D6831
:1051C000BC68013D0FD4A389012B05F1FF3506D939
:1051D000B4F90E300133204601D0C04706436B1CA2
:1051E00004F16804EFD13F68002FE8D13046BDE8F4
:1051F000F0813E463046BDE8F08100BF0048704770
:105200008C040020014B1868704700BFAC040020DC
:105210000048704754040020F0B58B899AB2960775
:1052200091B00C46054637D4B1F90E10002917DBB2
:1052300001AA01F045FB002810DB029B03F4704338
:10524000B3F500514F424F41B3F5004F2CD0A38925
:1052500043F40063A3814FF480660BE0A3899AB204
:1052600012F0800F43F40063A38114BF40264FF473
:10527000806600272846314600F046F8A3890028BA
:1052800029D01B4AEA6343F08003A3812060206198
:105290006661A7B911B0F0BD01F1430301220B60B3
:1052A0000B614A6111B0F0BD124AA36A9342CED19C
:1052B000A3894FF480663343A381E664DAE7284686
:1052C000B4F90E1001F010FB0028E3D0A38943F0DD
:1052D0000103A381DEE79A05DCD404F1430243F025
:1052E00002030121A381226022616161D2E700BF34
:1052F000594B000811660008024B0146186800F07F
:1053000003B800BF500400202DE9F04F01F10B0558
:10531000162D83B0064627D935F0070527D4A942B4
:1053200025D8304600F018FCB5F5FC7F26D2C14FD9
:105330004FEAD50C07EBCC03DC689C4200F0D2812D
:105340006368E268A16823F00303234430465D6884
:10535000CA6045F0010591605D6000F0FFFB083414
:10536000204603B0BDE8F08F1025A942D9D900240A
:105370000C232046336003B0BDE8F08F5FEA552C64
:1053800000F08A80BCF1040F00F260814FEA951CA6
:105390000CF1380C4FEA4C01A64F07EB8101CC68A9
:1053A000A14205D10CE0002B7ADAE468A14207D0D3
:1053B000626822F00302531B0F2BF4DD0CF1FF3C5B
:1053C0000CF1010C9B4B3C6903F1080E744500F095
:1053D0007E81616821F003014A1B0F2A00F364817A
:1053E000002AC3F814E0C3F810E06ADAB1F5007FD0
:1053F00080F03A81C90803EBC1004FEAA1085A685E
:105400008168A1604FF0010909FA08F848EA020230
:10541000E0605A608460CC604FEAAC0301209840A1
:1054200090425BD8024206D12CF0030C40000242AD
:105430000CF1040CFAD007EBCC084446E146E368D3
:105440009C4207D145E1002A80F25681DB689C42EC
:1054500000F03F81596821F003014A1B0F2AF2DD59
:105460001C46D3F80CC054F8088F591945F00109AF
:1054700042F00105C3F804903046C8F80CC0CCF8DF
:10548000088079613961C1F80CE0C1F808E04D602D
:105490008A5000F063FB63E77E214FF03F0C7BE70F
:1054A0002244E3685068A16840F00105CB603046B3
:1054B0009960556000F052FB0834204603B0BDE807
:1054C000F08F214430464B6843F001034B6000F0FD
:1054D00045FB0834204603B0BDE8F08FBC68636824
:1054E00023F00309A94504D3C5EB09030F2B00F3EF
:1054F0009180514B514A19681368013305EB010A39
:1055000004EB090B00F061810AF5805A0AF10F0AD9
:105510002AF47F6A2AF00F0A30465146019201F0C0
:1055200037F8B0F1FF3F8046019A00F000818345D3
:1055300000F2FA80DFF810C1DCF80030C3455344B4
:10554000CCF8003000F04A8112683C4901321BBFA0
:10555000CBEB080B5B44C1F80080CCF8003018F0AE
:10556000070300F01381C3F10802C3F58053904490
:105570000833C244CAF30B0ACAEB030A5146304649
:10558000CDF804C001F004F8431CDDF804C000F0BD
:105590003581C8EB0002524442F00102DCF80030D1
:1055A000C7F808805344BC42C8F80420CCF8003047
:1055B000DFF894A015D0B9F10F0F40F2EA806168CE
:1055C000A9F10C0222F0070201F0010EA11805203A
:1055D00042EA0E0E0F2AC4F804E04860886000F228
:1055E0001181174ABC6811688B4288BF1360154A45
:1055F00011688B4288BF1360626822F003029542F3
:10560000C5EB020301D80F2B04DC304600F0A6FAEC
:105610000024A5E6621943F0010345F00105656029
:105620003046BA60536000F099FA0834204603B05F
:10563000BDE8F08FB0040020D8080020BC0800208E
:10564000D4080020D0080020DC080020BCF1140F92
:1056500061D9BCF1540F00F28F804FEA153C0CF178
:105660006E0C4FEA4C0197E64B0A042B58D9142BC9
:1056700000F2AE8003F15B02500007EB8000DFF820
:10568000BC818368834200F08A805A6822F003025A
:10569000914202D29B689842F7D1D9687A68E1605A
:1056A000A3608C60DC60B7E6611942F0010745F049
:1056B00001056560304659611961C1F80CE0C1F817
:1056C00008E04F608A50083400F048FA48E65A680B
:1056D000A2E609F1010919F0030F04F108047FF4AF
:1056E000AEAE2DE004F108036469A34208BF0CF1DB
:1056F000020C3FF467AE23E619441C464868DB6899
:1057000054F8082F40F001054D603046D3609A6090
:1057100000F024FA24E60CF15B0C4FEA4C013BE666
:105720008A0938325000A8E7BC423FF403AFBC6896
:10573000626822F0030262E7D8F8008098457BD1C6
:105740001CF0030FA8F108030CF1FF3CF4D17B68B7
:1057500023EA00037B60400098423FF6BFAE00287A
:105760003FF4BCAE0342CC467FF465AE400003423A
:105770000CF1040CFAD05EE6BCF5AA7F1AD84FEA09
:10578000D53C0CF1770C4FEA4C0105E64FF4805301
:10579000EFE60123C8F80430444600222FE79110B9
:1057A0000120D8F8042000FA01F10A43C8F80420C7
:1057B000194674E740F254539C451BD84FEA954C68
:1057C0000CF17C0C4FEA4C01E6E50AF1100AA3E665
:1057D000542B1FD80A0B6E3250004EE7CBF30B014F
:1057E00000297FF4B1AE0AEB0901BA6841F001016A
:1057F0005160F6E6FC214FF07E0CCDE501224FF022
:10580000000ACBE604F108013046FFF777FADAF830
:105810000030E6E6B3F5AA7F03D8CA0B7732500012
:105820002BE740F25452934203D88A0C7C3250004A
:1058300023E7FC207E2220E77B688CE7B004002071
:10584000830770B4C9B23FD0541E2AB303788B4289
:1058500023D0431C04E0FCB104788C421DD01446D4
:1058600013F0030F184604F1FF3203F10103F2D1E4
:10587000032C14D8651E4CB303788B420DD0421C08
:10588000002302E004788C4207D0AB42104603F1BB
:10589000010302F10102F5D1002070BC704741EA1A
:1058A0000126034646EA064618460433026872405B
:1058B000A2F1013525EA020212F0803FDAD1043C60
:1058C000032C1846F0D8D5E71446D1E72046E4E784
:1058D000844641EA000313F003036DD1403A41D3FB
:1058E00051F8043B40F8043B51F8043B40F8043BBA
:1058F00051F8043B40F8043B51F8043B40F8043BAA
:1059000051F8043B40F8043B51F8043B40F8043B99
:1059100051F8043B40F8043B51F8043B40F8043B89
:1059200051F8043B40F8043B51F8043B40F8043B79
:1059300051F8043B40F8043B51F8043B40F8043B69
:1059400051F8043B40F8043B51F8043B40F8043B59
:1059500051F8043B40F8043B51F8043B40F8043B49
:10596000403ABDD2303211D351F8043B40F8043BE9
:1059700051F8043B40F8043B51F8043B40F8043B29
:1059800051F8043B40F8043B103AEDD20C3205D3F9
:1059900051F8043B40F8043B043AF9D2043208D0F1
:1059A000D2071CBF11F8013B00F8013B01D30B8863
:1059B00003806046704700BF082A13D38B078DD041
:1059C00010F003038AD0C3F10403D21ADB071CBF13
:1059D00011F8013B00F8013B80D331F8023B20F87D
:1059E000023B7BE7043AD9D3013A11F8013B00F8B6
:1059F000013BF9D20B7803704B7843708B7883703E
:105A0000604670478842F0B410D98C18A0420DD27D
:105A10008518531E42B121462A4611F8014D02F85D
:105A2000014D013B5C1CF8D1F0BC70470F2A3FD9F7
:105A300040EA01039B073FD1A2F110073F0900EBA9
:105A4000071610360C46034625681D6065685D60C4
:105A5000A5689D60E568DD601033B34204F1100471
:105A6000F2D17B1C02F00F0C1B01BCF1030F194497
:105A7000034423D90E461D466446043C56F8047B75
:105A800045F8047B032CF8D8ACF1040424F003049B
:105A9000043402F0030223442144002AC4D01A44EF
:105AA00011F8014B03F8014B9342F9D1F0BC704758
:105AB0000346002AF3D1B7E70346F0E76246002A1F
:105AC000EDD1B1E7F0B4840743D0541E002A3ED094
:105AD000CDB2034603E0621E002C38D0144603F812
